:1000000053C300007FC300007DC300007BC300001A
:1000100079C3000077C3000075C3000073C30000FC
:1000200071C300000C94E40D6DC300006BC30000AD
:1000300069C30000FFC4000065C3000063C3000083
:1000400061C300005FC300005DC300005BC300002C
:1000500059C3000057C3000055C3000053C300003C
:1000600051C300004FC300004DC300004BC300004C
:100070000C94C40E0C943F0E0C941C0E6364696EB9
:100080006F70737578585B0002CAFECF84AF00258D
:100090003032780025780046757365733A206C6FAE
:1000A000773D2530325820686967683D25303258E1
:1000B0002065783D25303258206C6F636B3D2530CC
:1000C000325800546F6D00256868752E2568687574
:1000D0002E256868752E256868750025752E25758E
:1000E0002E25752E257500257300706172736520AD
:1000F0006572726F7200100E0000100E0000030592
:1001000000020A05000300001F003B005A007800AF
:100110009700B500D400F300110130014E016D01CC
:1001200000001F003C005B0079009800B600D5007D
:10013000F400120131014F016E011F1C1F1E1F1E12
:100140001F1F1E1F1E1F53756E004D6F6E005475CE
:100150006500576564005468750046726900536114
:10016000740025750A0025750A000A00436F6E7435
:10017000656E742D4C656E6774683A200046696C34
:1001800065204E6F7420466F756E640A00485454A3
:10019000502F312E31203430342046696C65204E8A
:1001A0006F7420466F756E640A436F6E6E6563747C
:1001B000696F6E3A20636C6F73650A436F6E746586
:1001C0006E742D547970653A20746578742F706C54
:1001D00061696E3B20636861727365743D75746616
:1001E0002D380A0042616420526571756573740A86
:1001F00000436F6E74656E742D456E636F64696E37
:10020000673A20677A69700A00485454502F312E9B
:10021000312034303020426164205265717565733D
:10022000740A436F6E6E656374696F6E3A20636C17
:100230006F73650A436F6E74656E742D54797065C3
:100240003A20746578742F706C61696E3B20636826
:1002500061727365743D7574662D380A004361637D
:1002600068652D436F6E74726F6C3A206E6F2D63EC
:10027000616368650A43616368652D436F6E7472DC
:100280006F6C3A206D7573742D726576616C69645C
:100290006174650A436F6E74656E742D5479706570
:1002A0003A20746578742F706C61696E3B206368C6
:1002B00061727365743D7574662D380A0A00436F68
:1002C0006E74656E742D547970653A206170706C2F
:1002D00069636174696F6E2F7868746D6C2B786DCB
:1002E0006C3B20636861727365743D7574662D386C
:1002F0000A0A00436F6E74656E742D547970653A06
:1003000020746578742F68746D6C3B20636861722B
:100310007365743D7574662D380A0A00436F6E74F8
:10032000656E742D547970653A20746578742F6306
:1003300073733B20636861727365743D7574662DD9
:10034000380A0A00485454502F312E3120323030B0
:10035000204F4B0A436F6E6E656374696F6E3A206F
:10036000636C6F73650A006964782E687400656356
:100370006D643F006964782E687400474554202FEF
:100380000025750A00706F72742025643A20307859
:10039000253032780025326868783A2532686878E6
:1003A0003A25326868783A25326868783A253268A2
:1003B00068783A253268687800253032783A2530F6
:1003C00032783A253032783A253032783A25303250
:1003D000783A2530327800756E6B6E6F776E2073C9
:1003E000656E736F722074797065002530327825E0
:1003F0003032782530327825303278253032782501
:1004000030327825303278253032780025326868ED
:100410007825326868782532686878253268687887
:1004200025326868782532686878253268687825CA
:10043000326868782563004D61782066696C6C3A93
:100440002575004F766572666C6F773A256C75007E
:100450005061636B6574732061636B3A256C752022
:100460006E61636B3A256C75005061636B657473E4
:100470002031627974653A256C7520256C750050C1
:1004800061636B657473206261643A256C7500501A
:1004900061636B65747320676F6F643A256C7500D8
:1004A00042797465732064726F707065643A256C6C
:1004B0007500427974657320676F6F643A256C75B7
:1004C00000427974657320746F74616C3A256C75A1
:1004D0000025632563256320253032642E253032C4
:1004E000642E2530346420253032643A253032645D
:1004F0003A25303264202B25643A253032640025B9
:100500006C75009D060C0698065B068F06880689AA
:100510000699068106AB067E069F2376063F247267
:1005200006F9246A0685256306E225580646264E06
:10053000067626460629284306E62740066C283B11
:1005400006AF2836060D2931066A1B2906521B1BE9
:1005500006B11B0F06662904068929F6059C29EABF
:1005600005B129DF05D429D105E729C505FC29BA3C
:10057000051F2AAC05322AA005472A95056A2A8755
:10058000057D2A0000000070696E20746F67676C3B
:10059000652070340070696E2067657420703400C7
:1005A00070696E20736574207034200070696E204D
:1005B000746F67676C652070330070696E206765C3
:1005C000742070330070696E20736574207033205E
:1005D0000070696E20746F67676C65207032007000
:1005E000696E206765742070320070696E207365D3
:1005F00074207032200070696E20746F67676C65BC
:100600002070310070696E20676574207031007051
:10061000696E207365742070312000656570726F9B
:100620006D207265696E69740076657273696F6EAC
:100630000068656C700074696D65006461746500C4
:100640006777006970006E65746D61736B00656D2E
:100650007320737461747300317720636F6E7665F5
:10066000727400317720676574003177206C69738C
:1006700074006D6163006164632067657400696F75
:1006800000776472657365740072657365740068E1
:100690006F73746E616D650066757365006420002C
:1006A0006F6666006F6E000011241FBECFEFD0E1B1
:1006B000DEBFCDBF14BE0FB6F894A8958091600040
:1006C000886180936000109260000FBE10926E00EF
:1006D00010926F001092700011E0A0E0B1E0E2E033
:1006E000FAE602C005900D92A234B107D9F726E0D0
:1006F000A2E4B1E001C01D92AB3DB207E1F703D027
:100700000C94752D7DCC81EB84B980E78AB97894FF
:1007100088E19FE00FB6F894A895809360000FBE23
:1007200090936000A8959BD10E94922AA4D10E9428
:10073000A82AA8950E94002B8091480182FF0CC036
:10074000F89488E198E00FB6F894A895809360003B
:100750000FBE90936000FFCF81FFEBCFF894E0E0F5
:10076000F0E00995E6CF282FE82FF92F80E09E2FA3
:10077000921B961708F008959191892798E03CE81C
:10078000869508F483279A95D9F7F1CFEF92FF92D7
:100790000F931F93CF93DF938B01EA017B01E40E4C
:1007A000F51EC80FD91F21970E151F0529F4CDB7C7
:1007B000DEB7E6E00C94B934F70162917F01CE0117
:1007C0000E94E034F0CF0F931F93CF9300E010E02E
:1007D000C0E0C8010E94D8349C2F982788E02CE8FC
:1007E000969508F492278A95D9F7C92F0F5F1F4F66
:1007F0000231110571F7892FCF911F910F91089543
:10080000A7E0B0E0E6E0F4E00C94A13446E050E06C
:1008100068E870E0CE0101960E948C2D46E050E021
:10082000BE016F5F7F4F80E090E0B0DF80EC98EA20
:100830009A83898387E09DE59C838B8344E050E025
:10084000BE016F5F7F4F86E090E0A0DF87E095E01C
:100850009C838B8344E050E0BE016F5F7F4F8EE04E
:1008600090E094DF8FEF9FEF9A8389838FEF90E082
:100870009C838B8344E050E0BE016F5F7F4F8AE032
:1008800090E084DFA0DF8F8341E050E0BE01695F2C
:100890007F4F82E190E07ADF2796E2E00C94BD344E
:1008A000FF920F931F93CF93DF93EC01362FFA0142
:1008B00020E097FF06C08DE28083D195C195D109D4
:1008C00021E08AE090E011E04AE0C817D90784F4FB
:1008D0006AE070E00E943D34311790F4922F931B30
:1008E000F92EF10E0AE010E02F114EC0132F10C0A8
:1008F000BC01469FC001479F900D11241F5FE5CFAB
:10090000FF24F394F20EDF01A20FB11D80E38C935C
:10091000332309F141E04F0DDF01AF0DB11D8EE230
:100920008C93942F832F20E3DF01A90FB11D18179B
:1009300068F1912F931B311708F490E0232F211BAE
:10094000311708F420E0240F930FF92EF20E0AE07D
:1009500010E0F2122FC0EF0DF11D10828F2DCDB7D8
:10096000DEB7E5E00C94BA34C61BD70B4F5FC61751
:10097000D707D4F7DF01A20FB11D4C93CB01B8010B
:100980000E943D342F5FB0CF40E3F1CF9F5F2C93A7
:100990008150CACFC61BD70B3F5FC617D707D4F706
:1009A000DF01A20FB11D3C93CB01B8010E943D3481
:1009B0002F5FCFCF30E3F1CFA1E0B0E0E2EEF4E083
:1009C0000C94A0340E94A911FEDE182F41E050E0E3
:1009D00062E170E0CE0101960E94C83489818113E2
:1009E0000FDFC4D10E949D2AE1D20E94E418219613
:1009F000E3E00C94BC34E1E8F0E080818C7F8083FC
:100A0000808184608083A0E8B0E08C918C7F8C939F
:100A100080818860808380818F7E808381EE94E0F6
:100A20009093890080938800EFE6F0E080818260F7
:100A3000808308958F938FB78F939F9381E08093E6
:100A4000DA0690914901890F823310F08FEC890FFB
:100A5000809349019F918F918FBF8F9118952C9A08
:100A600080E58CBD81E08DBD08958EBD0DB407FE7F
:100A7000FDCF8EB508950895A9E0B0E0E2E4F5E079
:100A80000C949834182F092FC12CD12C7601DA94AC
:100A9000C601F60124912332D1F5DE01119621E041
:100AA00030E05D01F901E80FF91FE491ED932F5F4C
:100AB0003F4F2A303105B1F7998468E0C50153DE14
:100AC000981225C046E050E0612F702FC5010E94AA
:100AD0000F2E892BE1F489E090E00E94092BFC01A4
:100AE000892B81F010828AE0C80ED11CE11CF11C18
:100AF000C182D282E382F482168215828F81988528
:100B000090878783CF012996EBE00C94B434E1E021
:100B1000DE1AE108F108C114D104E104F10409F07E
:100B2000B7CFE0E0F0E0EECFA6E0B0E0EAE9F5E034
:100B30000C949B34DC01022F132F9A0117968D9190
:100B40009C91189715964D915C911697841B950B67
:100B50006C01E12CF12CC982DA82EB82FC820C154B
:100B60001D052E053F0520F409831A832B833C8342
:100B70008B0129813A8180E090E01596ED91FC91FE
:100B800016978217930771F4E80FF91F1696FC93D6
:100B9000EE93159769817A818B819C812696E8E096
:100BA0000C94B73411964D915C911297E40FF51F98
:100BB000E80FF91F4491F80141938F010196DDCFB1
:100BC00086E880937A0010927C008FEF80934A0130
:100BD0000895982F907C6F71962B90937C00909144
:100BE0004A01981759F090917A00906490937A0096
:100BF00090917A0096FDFCCF80934A0180917A0013
:100C0000806480937A0080917A0086FDFCCF809189
:100C10007800909179000895A2E0B0E0E2E1F6E07A
:100C20000C9499347B019C01F9012F5F3F4F808127
:100C30008032D1F3CE0101969F938F9384E990E0A7
:100C40009F938F93FF93EF930E94A62E0F900F9088
:100C50000F900F900F900F90019751F5A980BA80D7
:100C60008701E12CF12C8FE8C82E80E0D82EF70107
:100C7000EA0DFB1D80811F928F93DF92CF921F930D
:100C80000F930E94862E8FEFE81AF80A0E5F1F4F0F
:100C90000F900F900F900F900F900F9080E1E8163B
:100CA000F10429F780E290E02296EAE00C94B53452
:100CB0008FEF9FEFF9CF89E087BFE0E0F0E09491FC
:100CC00087BFE3E0F0E0249187BFE2E0F0E03491F9
:100CD00087BFE1E0F0E0E4911F92EF931F923F9312
:100CE0001F922F931F929F9387E990E09F938F937A
:100CF0005F934F937F936F930E94572E2DB73EB70C
:100D0000225F3F4F0FB6F8943EBF0FBE2DBF089530
:100D100083EC90E09F938F935F934F937F936F93B8
:100D20000E94572E0F900F900F900F900F900F90E2
:100D30000895FC01808181110BC08091480182607F
:100D40008093480180E18093580480E090E008950A
:100D50008FEF9FEF08958091480184608093480150
:100D600080E18093580480E090E00895A4E0B0E032
:100D7000ECEBF6E00C94A13446E050E060E070E06B
:100D800087E596E00E94C83444E050E066E070E0F9
:100D9000CE0101960E94C834E2E6F6E089819A818C
:100DA000918380838B819C819383828344E050E094
:100DB0006AE070E0CE0101960E94C834EEE5F6E0EC
:100DC00089819A81918380838B819C8193838283A3
:100DD00044E050E06EE070E0CE0101960E94C8341D
:100DE000E6E6F6E089819A81918380838B819C81FC
:100DF000938382832496E2E00C94BD342C988AE39A
:100E000034DE80E032DE2C9A0895CF93C82F2C98E0
:100E10008AE72BDE8C2F29DE2C9ACF9108952C980F
:100E20008FEF23DE8FE39FE10197F1F700C0000011
:100E30002C9A0895CF93C82F40EA63E08FE178D0D1
:100E40006C2F637040E88FE173D0C0935001CF9155
:100E50000895CF93DF93C82FD82FDF71DB3188F44B
:100E600090E025E0959587952A95E1F7AC014370D0
:100E700055272091500130E04217530711F083703D
:100E8000D9DF2C988D2FF1DD80E0EFDDC7FF02C0A8
:100E900080E0EBDD2C9ADF91CF910895CF93DF9323
:100EA000C62FD82FDF71DB3188F490E025E09595CF
:100EB00087952A95E1F7AC014370552720915001A1
:100EC00030E04217530711F08370B4DF2C988D2F58
:100ED0008064CBDD8C2FC9DD2C9ADF91CF910895F2
:100EE000CF93682FC92F80E0D9DF6C2F81E0D6DF48
:100EF000CF910895CF93682FC92F82E0CFDF6C2F59
:100F000083E0CCDFCF910895CF93DF93D62FC72F07
:100F1000682F84EDC3DF6D2F86EDC0DF6C2F87ED6A
:100F2000BDDF8AEE96DF80FDFCCFDF91CF91089583
:100F30001F93CF93DF93C62FD42F182F1F711B3110
:100F400088F490E025E0959587952A95E1F7AC0126
:100F5000437055272091500130E04217530711F09C
:100F6000837068DF2C98812F8D2B7FDD8C2F7DDDAA
:100F70002C9ADF91CF911F910895CF93682F84ED24
:100F80008DDF40E861E082EDD3DF8AEE62DF80FD35
:100F9000FCCF40EA61E082EDCBDF88ED5ADFC82F5D
:100FA00089ED57DF982F8C2FCF9108958FEF809385
:100FB0004B0135DF60E088E071DF60E089E06EDFE3
:100FC0006FEF8AE06BDF6FE08BE068DF60E084E06A
:100FD00065DF60E185E062DF60E08CE05FDF60E0BC
:100FE0008DE05CDF60E08EE059DF60E08FE056DF8F
:100FF00010924F0110924E0140EA60E881EC98DFB8
:1010000040E86DE080EC94DF40E862E382EC90DF42
:1010100060E070E080E078DF80E0AFDF90FF44C008
:1010200040E861E082EC84DF62E184EC37DF62E17A
:1010300086EC34DF6CE087EC31DF68EF8AEC2EDF82
:1010400061E08BEC2BDF6091570684EE27DF609127
:10105000580685EE23DF6091590682EE1FDF60910E
:101060005A0683EE1BDF60915B0680EE17DF60910E
:101070005C0681EE13DF63E888E310DF62E17CE069
:1010800084E142DF6BED8BE109DF62E170E082E138
:101090003BDF40E864E08FE14BDF40E860E88EE151
:1010A00047DF10924B01089540EA61E082EC40DF97
:1010B00065E1BBCF80914B01811115C082ECC9DE87
:1010C0008273823331F080914D018F5F80934D01A7
:1010D0006DDF80ECBEDE8D3031F080914C018F5F92
:1010E00080934C0163CF0895A4E0B0E0EAE7F8E014
:1010F0000C94993489E3ADDE882351F180914E013F
:1011000090914F01EDDE7ADE182F78DE982F812F37
:1011100090934F0180934E018E010F5F1F4F7E0110
:1011200025E0E20EF11C68010F5F1F4F67DEF6013C
:1011300080830E151F05B9F789819A818C010450AF
:1011400011091A8309834297873E914028F02EDFC8
:101150002496EAE00C94B534E12CF12C81E6C82EFB
:1011600084E0D82E56012FEFC21AD20A47DEF501CD
:101170008083FFEFEF1AFF0AE016F10698F3109351
:101180005C0400935B0480916D0490916E04883040
:10119000910501F18830964049F40E943F198091F1
:1011A0005B0490915C04892B09F069D060914E0139
:1011B00070914F01CB01019781159041C8F06FEFFD
:1011C0008CE06CDE6FE08DE069DE40E860E48EE18B
:1011D000AFDEBECF0E94151981E00E94DA11809126
:1011E0005B0490915C04892B09F30E94FB19DDCF0D
:1011F00061508CE053DE80914E0190914F01019738
:10120000692FE1CFCF9389E324DE8823F1F08CE1CD
:1012100020DEC82F40EA60E88BE18ADEC4FF04C00C
:1012200083E1ABDE81E1A9DEC3FF08C040EA68E0EC
:101230008CE17EDE40EA6AE08DE17ADE8FB7F894D9
:1012400090915D06992319F08FBFCF91089598E092
:1012500090935D068FBF48DF10925D06C0FF04C00B
:1012600040EA61E08CE164DEC1FF04C040EA62E074
:101270008CE15EDE40E860E88BE15ADEE6CF0F935A
:101280001F93CF93DF93C4E68FE1E3DD83FF31C08B
:10129000C150D0F760E084E001DE60E185E0FEDD72
:1012A00060915B0486E0FADD80915B0490915C04C0
:1012B000905F692F87E0F2DD80E090E11BDE80E047
:1012C000A4DD01E614E0C0E0D0E080915B049091E1
:1012D0005C04C817D907A0F040E860E88FE128DE79
:1012E00040EA60E88FE124DE40E868E08FE120DE3C
:1012F00002C0C111CFCFDF91CF911F910F910895FF
:10130000F80181918F0181DD2196DFCF5D9A55989B
:10131000E1E5F1E080818E7F80830895982F4FB7BB
:10132000F8948AB1892B8AB92BB1892F809528230B
:101330002BB9E0E8F7E03197F1F72BB1292B2BB966
:101340002AB182238AB9E8E6F1E03197F1F729B1B1
:10135000E8E1F6E03197F1F789B13BB1392B3BB9C0
:101360003AB1392B3AB94FBF2923209589238223DB
:1013700008952FB7F8943BB1982F909593239BB97C
:10138000E0E5F1E03197F1F79BB1892B8BB92FBFE5
:1013900008953FB7F8949AB1982B9AB92BB1982F2A
:1013A000909529232BB9E4E0F0E03197F1F72BB1C8
:1013B000282B2BB92BB1282B2BB92AB192239AB900
:1013C000E8E3F0E03197F1F799B1E4E0F1E031972B
:1013D000F1F72AB1282B2AB93FBF982381E0911158
:1013E00001C080E00895662311F0D3CF0895C1CFE6
:1013F0000895EF92FF920F931F93CF93DF93182FCF
:10140000062F8AB1812B8AB9C0E0D0E0EE24E394A4
:10141000F12CB7010C2E01C0660F0A94EAF7602385
:10142000812FE1DF2196C830D10599F7CDB7DEB71E
:10143000E6E00C94B9340F931F93CF93DF93082FFA
:10144000C0E0D0E010E0802FA4DF282F0C2E01C0D8
:10145000220F0A94EAF7122B2196C830D10599F78A
:10146000812FDF91CF911F910F91089580E256DF78
:10147000882329F06CEC80E2BCDF81E008958FEFD7
:101480000895A0E0B0E0E7E4FAE00C949B348C010E
:1014900080E244DF882309F165E580E2AADFE80104
:1014A000C80108967C01CC24C394D12C00E010E044
:1014B000C601002E01C0880F0A94EAF768816823EC
:1014C00080E291DF0F5F1F4F0830110589F72196E9
:1014D000CE15DF0559F781E001C08FEFCDB7DEB73C
:1014E000E8E00C94B734562F577021E030E001C08B
:1014F000220F5A95EAF7669566956695FC01E60F08
:10150000F11D9081411104C020959223908308958C
:10151000922BFCCFA0E0B0E0E0E9FAE00C949A3422
:10152000D82F662309F443C08FEF80935201E3E57F
:10153000F1E088E0DF011D928A95E9F78D2FEEDE5C
:10154000882309F463C060EF8D2F53DF00E010E0C3
:10155000BB24BA94EE24E394F12CD02E8D2F19DF06
:10156000C82E8D2F16DFC82FCC0FCC29C33019F110
:10157000C11145C080915201082E000C990B8017B3
:101580009107F9F441E0602F83E591E0ACDFC1E021
:101590008AB18D2B8AB96C2F8D2F25DF0F5F1F4FDE
:1015A00000341105D1F6B092520181E005C080915E
:1015B000520187FFC3CF80E0CDB7DEB7E9E00C94DE
:1015C000B634801791073CF440E0602F83E591E04A
:1015D0008ADFB02EDDCFE02FE695E695E695F0E0C8
:1015E000EF5AFE4F802F8770970102C0220F331FE2
:1015F0008A95E2F7C281C223C111CACFEACF4C2D2E
:10160000602F83E591E06FDFCC2DC2CF8FEFD4CF79
:10161000FC01908181E0903131F0923229F09832D2
:1016200019F080E00895089508951F93CF93DF93F4
:10163000EC01162F0097E9F419DF87FD16C064E46A
:1016400080E2D7DE559A5D9A80E0112371F02FEF8A
:101650008FE097E2215080409040E1F700C0000009
:1016600080E297DE8823E1F381E0DF91CF911F9143
:101670000895CEDF882319F0CE0103DFDECF8EEF91
:10168000F4CFEF92FF920F931F93CF93DF938C01D0
:10169000EB010097F9F4EADE87FD17C06EEB80E2FC
:1016A000A8DE8E017E0189E0E80EF11C80E2C3DE37
:1016B000F80181938F01EE15FF05C1F7188568E0E9
:1016C000CE0151D8181771F08EEFCDB7DEB7E6E036
:1016D0000C94B9349DDF882319F0C801D2DEDCCF29
:1016E0008DEFF3CF81E0F1CFFB01DC018C918031F4
:1016F000C9F4678170E0808191819695982F882741
:101700009795879588279C01205431098681AB01E4
:10171000481B5109942F80E00E943D34C901860F77
:10172000971F0895823211F0883241F480819181AF
:1017300024E0880F991F2A95E1F708958FEF9FEF16
:101740000895FED15C9828985E980895E82FF0E0FF
:10175000813071F0823091F0811106C0662329F04A
:101760005C9AE05AFE4F408308955C9840E0F9CFC0
:10177000662311F05E9AF5CF5E98F8CF6623B1F339
:10178000F0CF0F931F93CF9300E611E0C0E0F80174
:1017900081918F01882349F0815031978083811195
:1017A00004C040E060E08C2FD1DFCF5FC33079F719
:1017B000CF911F910F910895CF93DF93EB0140914B
:1017C000D5015091D6012091D7013091D80142170F
:1017D000530729F56034710510F52BE02093D901EA
:1017E000AB01BC018AED91E00E94E32D6C2F6F5F8D
:1017F00089ED91E06FD3FE01EB52FE4F85838FB7E9
:10180000F8942196D093D601C093D5011092D801B7
:101810001092D7018FBF81E0DF91CF91089580E0D2
:10182000FBCF90912A0260FF4CC0E92FF0E0E65E0A
:10183000FD4F1082E92FE695E695E695F0E0E65E2D
:10184000FD4F892F877021E030E001C0220F8A957B
:10185000EAF78189822B818B9F5F90932A02809186
:101860005C01813021F580915B0180935F011092D2
:101870005C0110925D0110925E0180912A0280311C
:10188000A8F080918B0190918C01A0918D01B09175
:101890008E010196A11DB11D80938B0190938C0147
:1018A000A0938D01B0938E0110922A020895109298
:1018B0005F018230E0F280915E018B30C1F66BD126
:1018C000D6CF61FDDACFE92FF0E0E65EFD4F8083F1
:1018D0009F5F90932A0280935B0190915C019F5FD0
:1018E00090935C0190915D019F5F90935D019230B8
:1018F00021F680935E01C1CF90912A029923C9F00D
:101900009150A92FB0E0A65EBD4F2C91211111C0BE
:10191000E92FE695E695E695F0E0E65EFD4F218934
:1019200030E0977002C0359527959A95E2F720FD33
:101930008C930895CF938091580486FF67C080915F
:101940002D0290912E02892B09F059C0E091560486
:10195000F0915704F0932E02E0932D028FE390E074
:10196000938B828B9091580493FF1EC0E091560494
:10197000F091570420912D0230912E02E217F307C7
:1019800099F4838D84FF10C04091D7015091D80104
:101990002091D5013091D6014217530729F4926066
:1019A000909358048F7E838F809158048D70882384
:1019B00021F120912D0230912E02809156049091B8
:1019C000570428173907C9F480919001909191012B
:1019D000892B99F0CFB7F8946091900170919101A3
:1019E00085E991E00E94C117809190019091910149
:1019F0009093930180939201CFBFCF9108956BE1B3
:101A000070E080E191E00E94C117ACCF80FF27C059
:101A100020912D0230912E0280915604909157040E
:101A20002817390721F080E1809358049BCFCFB766
:101A3000F8946091920170919301409190015091BE
:101A40009101461B570B50939101409390016B56A7
:101A50007E4F85E991E00E94EC2DCFBF83CF982F78
:101A60009073911102C087FF18C020912D02309110
:101A70002E0280915604909157042817390709F0D7
:101A800071CF10922E0210922D028FB7F8941092FF
:101A90009101109290018FBFE1CF81FF63CF6091E0
:101AA0005B0470915C046134710508F05BCF809138
:101AB0005F049091600480DE882309F453CFE091A5
:101AC0005604F0915704838D8061838F4BCF6AE970
:101AD0007CE08FE19EE053C4089581E020912D02C7
:101AE00030912E02232B09F480E00895E9ECF0E018
:101AF0008081877980838BE08093340280ED8093AE
:101B0000B3001092B200E0E7F0E080818260808351
:101B100085E080933502089540E060E080E016DEC5
:101B20008091C80087FD09C08091C9008F7D8069C0
:101B30008093C9001092350208958091CE00F0CFB5
:101B40009FB7F8941092CD0087E68093CC0086E092
:101B50008093CA00E9ECF0E0808188698083E8EC3A
:101B6000F0E080818D7F80839FBF5B98539AE1EB8B
:101B7000F0E080818A7F8083808182608083A0EB17
:101B8000B0E08C918E7F8C938C9182608C9380815D
:101B9000877F8083089580912F02823029F48BE81B
:101BA00080935F0110922F02089580913302882361
:101BB00051F080913302815080933302809133023F
:101BC000811101C0A9CF08951F920F920FB60F92F5
:101BD00011242F933F934F935F936F937F938F9332
:101BE0009F93AF93BF93EF93FF9380913402815003
:101BF000809334028091340281110DC08091700075
:101C00008D7F809370008091C90088608093C900A7
:101C10001092330281DFFF91EF91BF91AF919F91BD
:101C20008F917F916F915F914F913F912F910F9085
:101C30000FBE0F901F9018951F920F920FB60F9224
:101C400011242F933F934F935F936F937F938F93C1
:101C50009F93AF93BF93EF93FF9348DFFF91EF9173
:101C6000BF91AF919F918F917F916F915F914F91B4
:101C70003F912F910F900FBE0F901F9018951F92BC
:101C80000F920FB60F9211242F933F934F935F93B0
:101C90006F937F938F939F93AF93BF93CF93EF9364
:101CA000FF9380913502813049F0833071F180914A
:101CB000C9008F7D8093C9002FDF15C08BE0809312
:101CC00031028093CE0082E0809335028AE08093D7
:101CD00033028091D701809332028091C9008F7DB9
:101CE00080698093C900FF91EF91CF91BF91AF912F
:101CF0009F918F917F916F915F914F913F912F9124
:101D00000F900FBE0F901F9018952091D701309122
:101D1000D8018091D5019091D6012817390758F53F
:101D2000F901EB52FE4FC5818091320290E02817F5
:101D3000390769F482E0C7FF81E080932F028C2F7E
:101D40008F778093300240E061E080E0FFDC80919B
:101D5000D7019091D80101969093D8018093D70133
:101D6000C0933102C093CE0084E0809335028AE0B4
:101D700080933302B2CF8091C9008F7D8093C900D8
:101D80008091C9008064ADCF1F920F920FB60F9261
:101D900011242F933F934F935F936F937F938F9370
:101DA0009F93AF93BF93EF93FF938091350282305F
:101DB00011F0843041F58091C80087FF7AC01092FD
:101DC00033028091CE0090913102981779F0809182
:101DD000320290E09093D8018093D70187DE809102
:101DE000C9008F7680628093C90063C083E08093CE
:101DF0003502F5CF8091CE0094FB662760F99C7088
:101E0000911162600EDD9091C80097FDF3CF809133
:101E10005F0190912F02913009F047C0813079F530
:101E20008091770190917801A0917901B0917A0128
:101E30000196A11DB11D8093770190937801A09325
:101E40007901B0937A018091300256DD10922F0211
:101E500010925F018091730190917401A0917501BE
:101E6000B09176010196A11DB11D809373019093ED
:101E70007401A0937501B093760181E0B8CF8430EE
:101E8000A1F480917B0190917C01A0917D01B091A2
:101E90007E010196A11DB11D80937B0190937C0171
:101EA000A0937D01B0937E01CECF8B3879F2109252
:101EB0005F01FF91EF91BF91AF919F918F917F91C2
:101EC0006F915F914F913F912F910F900FBE0F90A7
:101ED0001F901895282FE82FF92F80E03CE09E2FC7
:101EE000921B961708F0089590E087FF02C08327A1
:101EF00091E0880F892B91918927F1CFCF93DF93C0
:101F0000CFB7F89440912A02409387024423A9F066
:101F100050E06AE172E087E792E00E94E32D809151
:101F20002B0290912C029093890280938802109248
:101F30002A0210922C0210922B02CFBF80918702AE
:101F400090918F01981710F480938F01D0E08091C9
:101F50008702D81718F0DF91CF9108958D2F90E068
:101F6000C0913602AD2FA695A695A695B0E0A958CA
:101F7000BD4F51962C9130E04D2F477002C03595E2
:101F800027954A95E2F720FF01C1CC2381F18958BA
:101F90009D4FDC012C918091630190916401A0918F
:101FA0006501B09166018C0F911DA11DB11D80933B
:101FB000630190936401A0936501B0936601C13001
:101FC00009F061C0211116C080916F0190917001DC
:101FD000A0917101B09172010196A11DB11D809374
:101FE0006F0190937001A0937101B09372011092F0
:101FF0003602DBC08091370280933A022093370289
:102000008BE0809338028FEF8093390284E08093D5
:10201000360280913602482F50E060E070E090E098
:1020200004962091900130919101820F931F80348A
:10203000910508F44FC08091870190918801A0918B
:102040008901B0918A010196A11DB11D809387017C
:1020500090938801A0938901B0938A0180916B01CC
:1020600090916C01A0916D01B0916E01840F951F4C
:10207000A61FB71F80936B0190936C01A0936D0115
:10208000B0936E01B4CFC150C09336026C2F87E37A
:1020900092E020DFEC2FF0E0E95CFD4F90818917A2
:1020A00009F4B7CF8091830190918401A0918501BB
:1020B000B09186010196A11DB11D8093830190937B
:1020C0008401A0938501B093860142E061E082E043
:1020D0003DDB8DCF8091670190916801A0916901EE
:1020E000B0916A01840F951FA61FB71F80936701E7
:1020F00090936801A0936901B0936A0180917F0178
:1021000090918001A0918101B09182010196A11D61
:10211000B11D80937F0190938001A0938101B093C2
:10212000820141E061E081E011DBD7DC882309F422
:102130005ECF2091900130919101F901E057FE4F5F
:102140008AEA858385E58683C90103964091360234
:10215000478367E372E0F901E856FE4FDB0120E0B8
:102160003A2F361B341770F0840F911DAC014F5F6E
:102170005F4F509391014093900180579E4FFC0117
:10218000258335CF3D9131932327EACFC03478F4AE
:1021900021E02C0F20933602EC2FF0E0E95CFD4F9C
:1021A00089589D4FDC018C918083DF5FD0CE809178
:1021B0008B0190918C01A0918D01B0918E010196BF
:1021C000A11DB11D80938B0190938C01A0938D0173
:1021D000B0938E010CCFFC019B014381460F4093CD
:1021E0008D02A72FBB278281830F80938C02918160
:1021F00090938B02608160938A0250E03327E82F2E
:10220000F0E0EA17FB0780F49F5F90938B0299231D
:1022100039F042175307C0F48F5F80938C02089502
:102220006F5F60938A02F5CF4217530768F48F5FA0
:1022300080938C02811108C09F5F90938B02911153
:1022400003C06F5F60938A020895CF93DF93DB0131
:102250009A01FA013197E60FF71FAB01EA014E1719
:102260005F07D8F0AD01415051092E7FE417F50703
:1022700010F420E030E02A0F3B1F2E173F0751F4E7
:10228000208130E0322F2227820F931F821793077D
:1022900008F40196DF91CF9108954E5F5F4F6881FA
:1022A0007981762767277627860F971F86179707E6
:1022B000A8F60196D3CF44E150E06FE674E080E0E9
:1022C00090E0C3DF9C01009719F0982F832F0895A9
:1022D0008FEF9FEF0895BC018091560490915704B1
:1022E000089679DFE0915604F0915704AAE8B2E02D
:1022F0008C91808711968C911197818712968C9181
:102300001297828713968C9183870895CF93DF93DA
:10231000C0917104D0E0DC2FCC27209172042451AD
:10232000330BC20FD31F48E050E06BE774E08C0F13
:102330009D2F911D8ADFAE0163E874E086DF9C016A
:10234000982F832F232B11F48FEF9FEFDF91CF91E5
:102350000895E6E9F2E011821082349682E0EE3BC5
:10236000F807C9F71092D902109261031092E9039D
:1023700080E094E090938F0280938E020895E6E9C6
:10238000F2E020E030E040815181452B61F4220FE2
:10239000331F220F331FF901EA56FD4F80839183CB
:1023A0006283738308952F5F3F4F34962A3031053F
:1023B00051F70895CF92DF92FF920F931F93CF931F
:1023C000DF9327E934E03093600420935F04309377
:1023D0005E0420935D04C0915604D091570483306D
:1023E00001F58B8D8F70833009F04BC088899989F6
:1023F000892B09F046C088E080935804FE01EA5713
:10240000FF4F0190F081E02D309709F00995809100
:10241000580485FF0BC510925A04109259041B8E64
:1024200059C0823009F01DC1809193028F5F809363
:102430009302811113C0809192028F5F8093920268
:1024400081110CC0809191028F5F80939102811164
:1024500005C0809190028F5F8093900210925C047F
:1024600010925B0410925A04109259048B8D982F8D
:102470009D7F953059F48C8D8F5F8C8F883709F450
:102480001B8E10925C0410925B04ACC18823C9F3CC
:1024900028893989232B09F4E1C02C8D9FEF920FF5
:1024A0009C8F2111EECF9D8D983039F03FEF380F82
:1024B000323008F088C0953079F41B8E80E8809324
:1024C0005804FE01EA57FF4F0190F081E02D30974C
:1024D00009F0099584E1B9C0492F953008F044E02E
:1024E00033E001C0330F4A95EAF73C8F9F5F9D8F21
:1024F000843008F0A2C0813009F407C3823009F6A5
:1025000022602093900482E08093970484E080937B
:10251000980481E0809399048EEB80939A048CE276
:1025200090E090935C0480935B0480E680938F043A
:10253000888580938B04898580938C048A85809319
:102540008D048B8580938E048C85809387048D8584
:10255000809388048E85809389048F8580938A0474
:1025600086E0809378048C819D819093840480938D
:1025700083048E819F81909386048093850480914B
:1025800062069091630690937C0480937B04809113
:1025900064069091650690937E0480937D04888103
:1025A00099819093800480937F048A819B8190938A
:1025B0008204809381048B8D84FFD4C41092920492
:1025C00010929104A6C1492F953008F044E033E001
:1025D00001C0330F4A95EAF73C8F9F5F9D8F8F7044
:1025E000833009F085CF84E080935804FE01EA57D8
:1025F000FF4F0190F081E02D309709F0099580910F
:102600005D0490915E049093600480935F048091D8
:10261000590490915A04892B09F439C488899989FD
:10262000009709F434C4889628E190935C04809361
:102630005B042093900480E579CF982F9D7F9430A0
:1026400019F0883009F01DCF81E18093900488E271
:1026500090E090935C0480935B04EDCF8F708330A7
:10266000C8CE80916F04853409F00BCF00917104BE
:102670001091720410270127102780915B0490911C
:102680005C048017910708F4FCCE10935C0400935F
:102690005B04809175048F73F0907604F82AF11032
:1026A000F0CEC0906206D0906306C0916406D091CF
:1026B000650680917F04909180048C159D0539F406
:1026C00080918104909182048C179D0731F0C6019E
:1026D0008C2B9D2B892B09F0D4CEEDDD019609F0D2
:1026E000D0CE80917804863009F04DC00FDE409145
:1026F000850450918604CEEBD2E0019609F0C1CE5C
:102700002B8D222309F47AC08C819D8148175907AB
:1027100009F074C060918304709184048E819F815C
:102720006817790709F06AC060917B0470917C0496
:10273000888199816817790709F060C060917D04EC
:1027400070917E048A819B816817790709F056C0D1
:10275000D0935704C093560410925804909190045B
:10276000892F8470F82E882309F4D5C11B8E80E24E
:1027700080935804CA57DF4FE881F981309709F4F4
:1027800080CE09957ECE813009F07BCE8091830486
:10279000883009F076CE1092830480918504909160
:1027A0008604873F2FEF920738F1099690938604AD
:1027B0008093850480917B0490917C0490938004A5
:1027C00080937F0480917D0490917E049093820495
:1027D00080938104D0927C04C0927B04D0937E04C9
:1027E000C0937D0410925804DF91CF911F910F91F7
:1027F000FF90DF90CF9008950896D8CFC857DF4F4D
:1028000024E0C635D20709F07BCF809190048F7306
:10281000823079F4A6E9B2E08EEB92E0FD012081EE
:1028200031814217530709F4B7C034968E179F07BA
:10283000B1F78091900482FD24CE84E180939004CE
:1028400088E290E090935C0480935B0480E5809341
:102850008F0430918A0480918E0480938A04909131
:10286000890480918D048093890490938D048091D4
:10287000880420918C042093880480938C042091F8
:10288000870440918B044093870420938B043F5F1F
:1028900030938E0431110DC09F5F90938D04911180
:1028A00008C08F5F80938C04811103C02F5F209339
:1028B0008B0480918304909184042091850430914D
:1028C0008604309384042093830490938604809339
:1028D000850480917B0490917C0490938004809384
:1028E0007F0480917D0490917E0490938204809374
:1028F0008104809162069091630690937C0480939A
:102900007B04809164069091650690937E04809389
:102910007D0480E48093770480915B0490915C0453
:1029200098278927982790937204809371041092B6
:10293000960410929504109294041092930486E0E9
:10294000E5DC80959095909394048093930485E4BE
:1029500080936F04109270041092760410927504A4
:1029600080919402909195020196909395028093A4
:10297000940298278927982790937404809373046E
:1029800010927A041092790496DC80959095909339
:102990007A048093790426CFEEEBF2E080E090E0B9
:1029A000C0E0D0E0238D211184C028E8289FE001F9
:1029B000299FD00D1124C254DD4FD0935704C093EA
:1029C000560480E090E02D913C91119742175307F7
:1029D00009F083C0880F991F880F991FFC01EA56E0
:1029E000FD4F82819381FE01EA57FF4F91838083DF
:1029F00083E08C8F8A8F188E84E0898F1D8E1B8ACE
:102A00001A8A80918504909186049D838C8380919D
:102A10008304909184049F838E8380917B049091A2
:102A20007C049983888380917D0490917E049B83AC
:102A30008A8381E08B8F809190028C8780919102B4
:102A40008D87809192028E87809193028F8781E09B
:102A500090E0998B888B80918A048B878091890480
:102A60008A8780918804898780918704888781E09C
:102A700090E031DC80918F04982F907F913508F49D
:102A800044C082958F708550990B880F991F880FCD
:102A9000991FE0E0F0E0EF59FB4F36A93323A9F18D
:102AA000313011F5F394EF2DF0E0E817F9079CF3BE
:102AB0002CC0273039F4209721F0348D2C8D23172A
:102AC00008F4EF010196E857FF4F8330910509F0B4
:102AD00069CF209709F071CFD4CC019614968A3033
:102AE000910509F070CF84CF27A9323081F42430CA
:102AF00071F490AD81AD8F3B21E0920710F08EEB29
:102B000091E09D8B8C8B9F8B8E8B20E1F9CC2223C7
:102B1000E1F3F20EC8CF0451110980918F04829520
:102B20008F70880F880F081B110910935C040093A5
:102B30005B042F70223021F4892F8F738231D1F002
:102B4000012B21F4892F83708823A1F02091870421
:102B500088852813DDC12091880489852813D8C170
:102B6000209189048A852813D3C120918A048B85FA
:102B70002813CEC194FF4CC068897989611571050D
:102B800009F446C0CE010C9626DB80918A02309172
:102B90008B0438133DC080918B0220918C04281344
:102BA00037C080918C0290918D04981331C0409170
:102BB0008D0280918E0484132BC03C872D879E87C5
:102BC0008F878D8D81111DC04A8D3C8D888D982FEA
:102BD000969596959695242F231B291B820F888FF7
:102BE00027FF03C0941B292F230F998D392F36956A
:102BF0003695931B920F998F869586958695890FAA
:102C00008A8F81E0809358048A8D8C8F198A188A64
:102C10002B8DE22FEF70E150E83008F032CCF0E07D
:102C2000E051FB4C0C9472348091580480FF29CC05
:102C300083E08B8F80E480935804198A188A8091EE
:102C40005B0490915C04009721F022E420935804E7
:102C500042DB10925A0410925904E0915604F0910C
:102C60005704CDCB8091580480FF54C080919004CC
:102C70008F73823109F04EC080918F04982F907F1E
:102C8000913548F182958F708550990B880F991F67
:102C9000880F991FE0E0F0E0EF59FB4F36A933238E
:102CA000D1F0313039F4F394EF2DF0E0E817F90763
:102CB0009CF311C027A9323049F5243039F590AD85
:102CC00081AD8F3B21E0920710F08EEB91E09D8B60
:102CD0008C8B9F8B8E8B83E08B8F80918704888772
:102CE000809188048987809189048A8780918A04E9
:102CF0008B8781E090E0EFDA82E480935804198AB0
:102D0000188A10925C0410925B04A3CF222319F35B
:102D1000F20ECACF80E280935804E0915604F091FD
:102D20005704EA57FF4F0190F081E02D309709F0EA
:102D30000995E0915604F0915704138E7ACD809155
:102D4000900480FF30C024FD2EC088899989892B8A
:102D500009F097CB80915B0490915C040196BBDAFB
:102D600080915804982F90619093580420915B04AF
:102D700030915C04232B19F0826180935804E09118
:102D80005604F0915704EA57FF4F0190F081E02D6F
:102D9000309709F0099581E090E0998B888B88E065
:102DA0008B8F1D8E51CC85FF1BC040915B045091D1
:102DB0005C04809195049091960498278927982720
:102DC00060915F0470916004680F791F70936004D4
:102DD00060935F04481B590B50935C0440935B0461
:102DE00040915B0450915C044115510549F024FD6C
:102DF00007C090915804926090935804CA016BDA0E
:102E00004091910450919204342F252F8E899F89EF
:102E10008217930718F0452B09F0C9019D8B8C8B05
:102E2000809158048370811114CF2BCB84FF0AC08A
:102E300010925A041092590481E090E0998B888B8B
:102E400084E0AECF2091590430915A042115310508
:102E5000B9F080FF02C0198A188A88899989009779
:102E600089F48C899D898217930720F490935A04E2
:102E7000809359048091590490915A04998B888BBE
:102E80001D8EBDCB90935A0480935904F9CF809145
:102E9000580481FFF6CA88E290E020E1C6CB809119
:102EA000580480FFEECA1B8E80E180935804E091A5
:102EB0005604F0915704EA57FF4F0190F081E02D3E
:102EC0005DCC80915B0490915C04009709F003DA7B
:102ED0008091580481709091900490FF1EC08823C7
:102EE000C9F087E08B8F1C8E198A188A81E090E0E8
:102EF000F2D980E180935804E0915604F091570490
:102F0000EA57FF4F0190F081E02D309709F00995C5
:102F100080E19BCB86E08B8FE9CF8823A1F085E011
:102F20008B8F198A188AADCA80915B0490915C04DA
:102F3000009709F0D0D98091900480FF04C087E009
:102F40008B8F1C8ED3CF80915B0490915C04892B76
:102F5000F9F697CA8091580480FF93CA87E08B8F57
:102F60001C8E8FCA8A899B89009731F090939104B7
:102F70008A8980939204CDCC81E0809391048EEB7A
:102F8000F8CF9C01AB011616170674F470935A041F
:102F90006093590480915D0490915E0482179307B9
:102FA00019F0B9010C94E32D0895CF93DF93CEEB84
:102FB000D2E0D0935704C093560482E0FBD98091AD
:102FC0005B0490915C04892B19F015D20E943F0993
:102FD000C857DF4F84E0C635D80759F7DF91CF9146
:102FE0000895FC01892B89F48BE291E09F938F93E4
:102FF0005F934F937F936F930E94282E0F900F90B3
:103000000F900F900F900F90089583811F928F93D0
:1030100082811F928F9381811F928F9380811F9253
:103020008F938BED90E09F938F935F934F937F935C
:103030006F930E94572E2DB73EB7225F3F4F0FB6BA
:10304000F8943EBF0FBE2DBF08959B016115710519
:1030500039F1AB014D5F5F4F5F934F934150510981
:103060005F934F93415051095F934F933F936F93F9
:1030700027EC30E03F932F939F938F930E94A62ECF
:1030800091E02DB73EB7245F3F4F0FB6F8943EBF97
:103090000FBE2DBF843009F490E0892F81950895EB
:1030A0008FEF0895A0E0B0E0E8E5F8E10C949C34DF
:1030B000FC014BE656E0DA0180E090E0CD91DC9136
:1030C0001197209759F112962D913C911397211544
:1030D000310521F100811181C017D107F9F4C281B6
:1030E000D3812C173D07D1F44BE0489F9001499FB5
:1030F000300D1124D901A159B94F86E0FB0101908F
:103100000D928A95E1F72559394F80916A06E901B8
:103110008A87CDB7DEB7E7E00C94B83401961B96EA
:103120008830910559F6ABE6B6E080E090E02D914D
:103130003C911197232B31F412962D913C911397CA
:10314000232B21F101961B968830910581F787E0AA
:1031500090E038E020916A063830D1F03BE0389FAB
:10316000E001399FD00D1124C559D94F84E0DE010B
:1031700001900D928A95E1F7DE01149686E0FB013D
:1031800001900D928A95E1F72A87C3CF382FE2CFBD
:10319000A22FB0E0D12C90E080E0EA013A857D01D9
:1031A000E31AF108092F10E00E151F051CF4922FE9
:1031B000931BD82E8F5F455F5F4F883071F78BE090
:1031C000D89EE0011124D0CFEBE6F6E084E0DF01E9
:1031D000982F1D929A95E9F73B96A6E0E33CFA07F3
:1031E000B1F7089580916A068F5F80936A06EBE6D7
:1031F000F6E090E044E02081318162817381262BEA
:10320000372B232B61F02285BC01621B71096837C3
:1032100071052CF0DF01242F1D922A95E9F73B96CA
:1032200066E0E33CF60739F7089580917B049091BE
:103230007C042091620630916306822793272091B7
:103240005E0630915F068223932320917D043091A6
:103250007E044091640650916506242735274091ED
:1032600060065091610624233523822B932B892BF2
:1032700029F467E674E08BE794E014CF0895809119
:103280005B0490915C0410925C0410925B048A973A
:1032900008F408958091750490917604811521E0D9
:1032A000920729F08115924009F461C00895209198
:1032B00087043091880480916206909163062817F4
:1032C000390709F06FC02091890430918A048091F8
:1032D0006406909165062817390709F063C067E70F
:1032E00074E08DE794E0DEDE80E092E09093760477
:1032F0008093750486E0E7E7F4E0A1E8B4E001908C
:103300000D928A95E1F786E0E7E5F6E0A7E7B4E0FD
:1033100001900D928A95E1F786E0E7E5F6E0A7E6F1
:10332000B4E001900D928A95E1F786E0E1E8F4E0DF
:10333000A1E6B4E001900D928A95E1F7EDE7F4E0A3
:10334000828591919187DF0111978C9384E0E13818
:10335000F807B1F788E096E090936E0480936D04CF
:103360008AE290E090935C0480935B04089520913E
:103370008704309188048091620690916306281733
:10338000390781F42091890430918A048091640680
:10339000909165062817390729F467E774E08DE7EF
:1033A00094E080CE0895DC018D919C911197EBE61D
:1033B000F6E020E030E0408151818417950749F420
:1033C00012966D917C911397428153816417750712
:1033D00049F02F5F3F4F3B962830310561F780E081
:1033E00090E008954BE0429FC001439F900D11244F
:1033F0008559994F0895A4E0B0E0E1E0FAE10C941A
:103400009B3480917F04805E803178F581E08093E9
:103410006104109262048EE58093630480918004BD
:103420008F778093640480918104809365048091F8
:1034300082048093660486E0E7E5F6E0A7E6B4E060
:1034400001900D928A95E1F788E090E090936E04E8
:1034500080936D0480915B0490915C040E96909330
:103460005C0480935B0480E0B6C020917F043091BF
:103470008004E0906206F090630640915E065091F1
:103480005F060091810410918204CA018095909595
:103490008E299F292817390779F480916006909129
:1034A0006106809590956091640670916506862B03
:1034B000972B8017910729F0C9018023912301964A
:1034C00051F486E0E0E3F1E0A1E6B4E001900D9272
:1034D0008A95E1F7B0CFC0906406D0906506C6012A
:1034E000802791276091600670916106862397235B
:1034F000B9016E257F2546235723842B952B892BD5
:1035000009F46DC080916606909167069A8389835D
:1035100000916806109169061C830B83CE01019609
:1035200042DFFC01892B09F05DC046E050E06FEFFF
:1035300070E081E694E00E94FD2D86E0E1E8F4E091
:10354000DF01682F1D926A95E9F7E7E5F6E0A7E647
:10355000B4E0982F01900D929A95E1F7E7E5F6E037
:10356000A7E7B4E0982F01900D929A95E1F7298191
:103570003A81309388042093870410938A0400933F
:103580008904F0927E04E0927D04D0928004C0927F
:103590007F0420E031E0309376042093750430936B
:1035A000700420936F0428E030E03093720420937D
:1035B00071048093730484E08093740488E096E03F
:1035C00090936E0480936D048AE290E090935C0483
:1035D00080935B0481E02496E8E00C94B7343A834E
:1035E00029839ACF349686E06FCFA0E0B0E0EBEF6E
:1035F000FAE10C9496346C01EB015A01FC01019044
:103600000020E9F73197E81BF90B80E090E0329752
:1036100080F1712C24E0729E80011124F801ED5F8D
:10362000FA4F8590949081149104B1F0C4010E94E6
:10363000A72D7C01AC01B401C6010E947F2D892B0E
:10364000E9F4C6018E0D9F1DF801EB5FFA4F25913D
:10365000349121153105A1F48FEF9FEF209749F0A8
:103660004BE050E06AEE70E0CE010E948C2D8BE0C2
:1036700090E0CDB7DEB7EDE00C94B2347394CACFCE
:10368000A501BE01F9010995209799F38F3F98078D
:1036900039F3009771F78FE488838BE4898382E0A4
:1036A00090E0E7CF87E391E09F938F9387EE90E0E0
:1036B0009F938F935F934F937F936F930E94572EA7
:1036C0002DB73EB7285F3F4F0FB6F8943EBF0FBEF1
:1036D0002DBF0895A0E0B0E0E0E7FBE10C94993441
:1036E0008C017B016A01DC018C91873121F087E13B
:1036F0008C9311961C92D8011196EC91119781E050
:103700008E0F11968C93B4E0EB9FF0011124ED5FC6
:10371000FA4FA590B490C5010E94A72DE6018C1523
:103720009D0508F4EC01AE01B501C7010E948C2D86
:10373000D8011196EC91B4E0EB9FF0011124ED5FFC
:10374000FA4F85919491892B31F086EF9FEFFC0120
:10375000EC1BFD0BEF01CE01CDB7DEB7EAE00C9418
:10376000B5340E94000480E090E008956DE57CE1AE
:103770008AE09DE80C94BF110895A0E0B0E0E3EC6E
:10378000FBE10C949B34C0915604D09157048E01F8
:10379000005B1F4FF801808190E022E330E0690177
:1037A000C81AD90AAE01425E5F4F7A01281739075D
:1037B000A9F020915B0430915C04C216D30608F096
:1037C000690160915F0470916004A6018E0D9F1DD8
:1037D0000E94E32DF80180818C0D8083F8014081E7
:1037E00050E06AE070E0C7010E94D62DFC01892BF1
:1037F000B1F440915B0450915C046AE070E0809108
:103800005F04909160040E94D62DFE01E15BFF4FA2
:10381000892B29F4CDB7DEB7E8E00C94B7341082D9
:10382000F70181918D3019F4DF0111971C920E1769
:103830001F07B9F78E8D813281F581E0FE01EB57CC
:10384000FF4F808341E350E0B7016D5C7F4F8E0DE9
:103850009F2D911DCADE9C01DE01AC57BF4F873FF3
:10386000FFEF9F07E4F481E08C9386EF9FEFAC01BC
:10387000421B530B9A01452B69F2FE01E20FF31F25
:10388000EF5AFF4F8081833221F08AE080832F5FDF
:103890003F4FCD57DF4F288305C080E0D3CF1816A8
:1038A00019065CF38C918111B5CF82E3F701119277
:1038B0008A95E9F7F8011082ADCFEF92FF920F934E
:1038C0001F93CF93DF93C0915604D09157049091EA
:1038D000580496FF11C0FE01E05BFF4F1082F39683
:1038E0001082319610823196108282E3E756F109F8
:1038F000DF011D928A95E9F79170992309F43EC082
:103900008E010D571F4FF80110827E01F4E8EF0E73
:10391000F11CD7018C91882389F18E8D813209F0B9
:1039200046C081E0FE01EB57FF4F80839E01225E7F
:103930003F4FB9016D5C7F4F41E350E0F901E90F62
:10394000F11DCF0152DE9C01873F9F4F94F581E02E
:10395000D7018C9386EF9FEFFC01E21BF30B9F01D5
:10396000121613065CF4FE01E20FF31FEF5AFF4F2D
:103970008AE080832F5F3F4FF801208380915804B5
:1039800081FDFBDE809158048F74882359F0FE017D
:10399000ED57FF4F6081662399F070E0CE018F5A9A
:1039A0009F4FEFDACDB7DEB7E6E00C94B93490E084
:1039B000BDCFD7011C92FE01E05BFF4F1082D0CF3C
:1039C000CB57DF4F8881882369F380E180935804C7
:1039D000E9CF1092C4061092C30608958091D306D1
:1039E0008F5F8093D306823360F18091D4069091EB
:1039F000D506A091D606B091D7060196A11DB11D9E
:103A00008093D4069093D506A093D606B093D7069C
:103A10008091CF069091D006A091D106B091D206A8
:103A20000097A105B10559F00196A11DB11D809324
:103A3000CF069093D006A093D106B093D2061092F1
:103A4000D3060895462F572FBC018091CF06909141
:103A5000D006A091D106B091D2060097A105B1057C
:103A600039F09A01281B390B3093C6062093C506FE
:103A70004093CF065093D0066093D1067093D20640
:103A80004093CB065093CC066093CD067093CE0640
:103A90008091B20090E0A0E0B0E08093C7069093E0
:103AA000C806A093C906B093CA0665D24091CF0656
:103AB0005091D0066091D1067091D2068091D406C3
:103AC0009091D506A091D606B091D7068417950798
:103AD000A607B70748F0841B950BA60BB70B8D32D2
:103AE0009140A105B10540F04093D4065093D5060E
:103AF0006093D6067093D7060895A4E0B0E0E3E89B
:103B0000FDE10C94A1348091D4069091D506A0914A
:103B1000D606B091D706BC01CD012496E2E00C9404
:103B2000BD34CF92DF92EF92FF920F931F93462FF7
:103B3000572FBC01EAEFF0E085919591A591B491E2
:103B4000892B8A2B8B2B01F1C0900601D0900701A5
:103B5000E0900801F090090100910B0110910C0117
:103B600020910D0130910E010C151D052E053F050C
:103B700068F481E0401751076207730790F04C1515
:103B80005D056E057F0568F480E00BC04C155D0592
:103B90006E057F05C8F381E0401751076207730780
:103BA00098F71F910F91FF90EF90DF90CF900895BD
:103BB000A4E0B0E0EEEDFDE10C949B348C018CE3CD
:103BC000C82ED12CE12CF12CCB01BA01A701960112
:103BD0000E945034F8016083CA01B901A70196011F
:103BE0000E945034F8016183CA01B90128E130E034
:103BF00040E050E00E945034F80162833A83298308
:103C0000C901049667E070E00E942934858322EBA5
:103C100037E0E4E6F0E090E9E92EFF24F3948981AF
:103C20009A818D369140B8F584E9820FF801868338
:103C300069817A8170876783C90164E670E00E94B8
:103C400029347C0140E0690173E0C722DD24E42FC0
:103C5000F0E0E65CFE4FE491FE2F413079F4C114B0
:103C6000D10461F4E114F10439F4C90160E971E0AF
:103C70000E942934892B11F4F1E0FE0F8F2F90E080
:103C80004F5FE981FA81E817F90750F1E81BF90B5A
:103C9000FA83E983DCCFC90183709927892BB9F4B2
:103CA000C901BF010E942934892B31F4C901B70130
:103CB0000E942934892B59F469817A816D3681E01B
:103CC000780709F4B1CF615071097A8369836981FA
:103CD0007A816D5671407A8369832F5F3F4F9FCF02
:103CE000F801448349814F5F438311862496E8E0BD
:103CF0000C94B734E42FF0E02EEF260F121674F573
:103D0000E459F84F93E529029001112437FF02C0CE
:103D1000215E3F4F95E0359527959A95E1F7280F5D
:103D2000311D2E0F3F1FCF0195958795959587954E
:103D3000280F391FCF016CE97FEF0E943D34260F19
:103D4000371FCF0160E971E00E943D34C901860F41
:103D5000971F67E070E00C943D3408952AE0260F29
:103D6000E559F84FCFCF382F262F842F837081113C
:103D700022C0842F64E60E941D3491111FC081E08F
:103D8000411180E0482F50E08DE0849FF001859F35
:103D9000F00D1124422F4150550BE40FF51FEE0F8B
:103DA000FF1FEA5FFE4F85919491432F4150550BC1
:103DB000840F951F089540E050E0E6CF41E050E0C9
:103DC000E3CF4F925F926F927F92BF92CF92DF923A
:103DD000EF92FF920F931F93CF93DF93CDB7DEB790
:103DE00028970FB6F894DEBF0FBECDBF7C01B42E6E
:103DF00044E050E0CE0101960E948C2DCB2CD12CBA
:103E0000D70114968C91082E000C990B8C159D05EA
:103E100009F483C01B8179804B2D672D81E06ADF17
:103E2000181B812F17FD895F272D2150330BF901B6
:103E3000E65CFE4FE4914A8191E0F0E0941708F4CB
:103E40005FC086010559184F169507951695079579
:103E5000065B1A4F34E9C31A38EFD30A4DE651E036
:103E6000C49E9001C59E300DD49E300D1124020FCA
:103E7000131F4B2D672D8F5F76DFAC01E6EFF0E06F
:103E800045905590659074902C8130E0A0E1BEE0A3
:103E90000E947834DC01CB0184199509A609B70981
:103EA0002C013D01D801A40FB51F20E831E541E008
:103EB00050E00E9487346D837E838F839887460EFF
:103EC000571E681E791ED7014D925D926D927C92AD
:103ED00013971496BC9281E028960FB6F894DEBF33
:103EE0000FBECDBFDF91CF911F910F91FF90EF904B
:103EF000DF90CF90BF907F906F905F904F9008952C
:103F0000282F082E000C330B295F3F4F2E173F0739
:103F10000CF097CF895F9F5F91CF80E0DDCFCF938B
:103F2000C82F482F6EEF70E086E091E04ADF4C2FFB
:103F300062E071E08BE091E044DF8823D1F0EAEFAA
:103F4000F0E0459155916591749180910B019091AC
:103F50000C01A0910D01B0910E01841B950BA60BD5
:103F6000B70B80930B0190930C01A0930D01B093BC
:103F70000E01CF910895E6E0F1E08FEF8483818711
:103F80000895CF92DF92EF92FF921F93CF93DF932A
:103F900000D000D000D0CDB7DEB78D839E8349839B
:103FA0005A836B837C83E6EFF0E0C590D590E59073
:103FB000F49089819A81AB81BC81C80ED91EEA1E1A
:103FC000FB1EB701A6018D819E81F2DDAD81BE8110
:103FD00016968C91A4DF69817A818B819C81A1DD09
:103FE000182F882381F0EAEFF0E045915591659113
:103FF00074914C0D5D1D6E1D7F1D8D819E81D8DDE0
:10400000ED81FE8111870F900F900F900F900F9010
:104010000F90DF91CF911F91FF90EF90DF90CF90A5
:1040200008958091580480FF04C080E18093580473
:104030000895E0915F04F0916004108269E072E0FD
:1040400080915F04909160040E94952D6CE671E070
:1040500080915F04909160040E94952D84EE91E020
:104060000E94A72DE0915F04F09160040190002070
:10407000E9F79F938F9382E691E09F938F93319717
:10408000FF93EF930E94862E6AE671E080915F04B1
:10409000909160040E94952D64EE71E080915F0420
:1040A000909160040E94952D80915F04909160042E
:1040B000FC0101900020E9F73197BF01681B790BE3
:1040C0000E94C1170F900F900F900F900F900F90BC
:1040D00008958091580480FF04C080E180935804C3
:1040E0000895E0915F04F091600410826DE871E042
:1040F00080915F04909160040E94952D6CE671E0C0
:1041000080915F04909160040E94952D8DE791E06D
:104110000E94A72DE0915F04F091600401900020BF
:10412000E9F79F938F9386E691E09F938F93319762
:10413000FF93EF930E94862E6AE671E080915F0400
:10414000909160040E94952D6DE771E080915F046D
:10415000909160040E94952D80915F04909160047D
:10416000FC0101900020E9F73197BF01681B790B32
:104170000E94C1170F900F900F900F900F900F900B
:1041800008956AEE70E280E090E50E94BF116AEE49
:1041900070E28FE190E40C94BF110895E091560411
:1041A000F0915704878D90A18250924261F481A1D1
:1041B00092A1009741F00E949F2BE0915604F0914C
:1041C000570412A211A2E0915604F091570410A2D4
:1041D000178E0895A0E0B0E0E0EFF0E20C949B347D
:1041E0008091580487FF06C0D9DFCDB7DEB7E8E07D
:1041F0000C94B734982F90739111F6CF86FF09C0B5
:10420000E0915604F0915704968D987F968F10A2F6
:10421000178E81FF19C0C0915604D09157048F8D1D
:1042200098A1892B19F08E8D81FF0EC0E0905F045C
:10423000F090600480915B0490915C040A97C8F44C
:1042400081E190E298A38F8F809158048F74882326
:1042500061F2A0915604B09157045F96ED91FC91E4
:104260009097309711F25E968C9181FDBECF0995A3
:10427000BCCF45E050E06BE773E0C7010E94B02D72
:10428000892BF1F687010B5F1F4F60E270E0C801D8
:104290000E94042EFC01892B99F21082F70185817E
:1042A000811105C064E773E0C8010E94A02D45E0BC
:1042B00050E06EE673E0C8010E94C82D892B21F4FE
:1042C000C7010A96CCD1C0CF6FE270E0C8010E944E
:1042D0001D2EFC01C0915604D0915704892BA1F0EA
:1042E00081818BA3C8010E943C059AA389A3E09118
:1042F0005604F091570481A192A1892B41F082E0EC
:1043000092E290A3878FA0CFF7018581EACFF801D1
:1043100001900020E9F7EF012197329780818F32D9
:1043200011F08FE2899367E673E0CE010E94A02D21
:10433000C0905604D0905704C8010E943C05F60175
:1043400092A381A3E0915604F091570481A192A118
:10435000892BA9F60C171D0749F4F7011582E09186
:104360005604F091570489E690E2CBCF219718824A
:10437000F6CF0F931F93E0915604F0915704A1A13B
:10438000B2A184A195A116969C938E93159724892A
:10439000358940E050E060915F047091600481A134
:1043A00092A10E949405611571058105910539F46A
:1043B00080E280935804F2DE1F910F910895E091FE
:1043C0005604F09157040489158920E030E0601705
:1043D00071078207930718F4268D2460268F04A1A5
:1043E00015A126A137A1060F171F281F391F00A7E7
:1043F00011A722A733A780915F04909160040E94C7
:10440000C117DACFCF92DF92EF92FF92CF93DF9373
:1044100000D0CDB7DEB790915804E0915604F091EA
:10442000570490FF0BC0868D80FF97C040A551A513
:1044300062A573A544A355A366A377A3868D80FDCB
:1044400093C0E0915F04F0916004108264E473E033
:1044500080915F04909160040E94952DE091560434
:10446000F091570401A0F2A1E02D878190856C01A5
:10447000892B09F16CE671E080915F0490916004F2
:104480000E94952DE0915F04F0916004019000205E
:10449000E9F71F921F92DF92CF9281E893E09F93FA
:1044A0008F933197FF93EF930E94862E0FB6F89467
:1044B000DEBF0FBECDBFE0915604F0915704A1A11D
:1044C000B2A116961C921E92159722E030E040E0B1
:1044D00050E0BE016F5F7F4F81A192A10E949405C1
:1044E000E0915604F091570401A0F2A1E02D16824C
:1044F000158261EF71E080915F04909160040E94E9
:10450000952DE0915604F091570423A180915F040A
:10451000909160046EEB72E0283531F06CE173E04D
:10452000233511F063EF72E00E94952D80915F04B6
:1045300090916004FC0101900020E9F73197BF01E0
:10454000681B790B0E94C1170F900F90DF91CF91DC
:10455000FF90EF90DF90CF9008958160868F14A236
:1045600015A216A217A26ACF82FF06C092FD04C050
:1045700080E180935804E8CFFCDEE6CF90915804A8
:10458000E0915604F091570490FF03C0868D81603E
:10459000868F868D80FD24C0E0915F04F0916004D9
:1045A000108264E473E080915F04909160040E9443
:1045B000952D6DE572E080915F04909160040E94FA
:1045C000952D80915F0490916004FC010190002082
:1045D000E9F73197BF01681B790B0C94C117089557
:1045E00092FD05C082FF0AC080E18093580480914B
:1045F0005604909157048D5A9F4FE7CFBF016D5AD3
:104600007F4F40E350E0CF0181960E94F51A9C0154
:10461000873F4FEF9407A4F486EF9FEFAC01421B56
:10462000530B9A018091560490915704820F931F67
:10463000FC01ED5AFF4F2AE0208331961082D7CF3C
:10464000873F9F4F20F080E1809358040895E091C8
:104650005604F0915704868D8460868FE3CFEF92E5
:10466000FF920F931F93CF93DF93EC0100915604B9
:10467000109157040F5D1F4F82E3F82E8881882325
:1046800011F1F11005C0CDB7DEB7E6E00C94B934F6
:10469000853231F08B3209F480E2F80180830EC05C
:1046A000EB801B8240E150E060E070E0CE010196BB
:1046B0000E94312CF8016083EB822296FA940F5FFE
:1046C0001F4F2196DBCFFF20F1F2F8011082E0911D
:1046D0005604F09157048EEB92E290A3878FD3CFCC
:1046E000CF93DF93FC01EB018081882341F080812F
:1046F000DF0131968032D9F340E0811110C080E0B3
:1047000090E01AC04295407F4883FD013197908127
:1047100080ED890F8A3010F089EC890F482BCD018C
:1047200048832D9130ED320F3A3060F32F7D2154C4
:10473000330B2630310530F3DF91CF910895A2E09D
:10474000B0E0E5EAF3E20C949834D62EC72E8A0145
:104750002FEF29839C01D9018C912F5F3F4F80322D
:10476000D1F3873601F18337C1F4A12C8C91FD017F
:1047700011968032D9F78081DF0131968032D9F3EA
:1047800011968C9111978F7D893409F453C070F480
:10479000813489F0843409F44FC08FEF9FEF229663
:1047A000EBE00C94B434AA24A394E0CF8F34A9F79F
:1047B00042E0942E04C0FD01349653E0952E3196CC
:1047C000CF0121912032E1F32F7D2E34C8F7BE01B5
:1047D0006E5F7F4F85DF009701F32A812430E8F672
:1047E000422F50E0FA01E25CFE4FB0807A01EE0CFD
:1047F000FF1CE40EF51E30E2E30EF11CE90CF11C87
:10480000E3E09E121CC0B0941F92BF921F922F93A0
:1048100085E893E09F938F9311271F930F93CF9277
:10482000DF920E94572E90E00FB6F894DEBF0FBEC5
:10483000CDBFB5CF912CC3CF99249394C0CFAA20DC
:1048400029F0F70180811F928F93E0CFBE016E5F48
:104850007F4F46DF009709F4A0CFBE016F5F7F4F07
:104860003FDFF701208189819A8198239B218B2149
:1048700080958223892B808380E090E090CF0F93F6
:104880001F93CF93DF93FC018B01C081CC2309F4EC
:1048900046C0C181CC2309F442C060ED6C0F8FEF9C
:1048A0009FEF6830B8F580E00E94E9059C01D0E0F8
:1048B000C8E0432F5527832F8F704F7055274A30FC
:1048C0005105A0F5805DF8018083A90184E056952B
:1048D00047958A95E1F7842F8F704F7055274A309E
:1048E000510530F5805DF8018183822F8F702F7024
:1048F00033272A303105F0F4805DF801828380E2AD
:1049000083831482DC5FCF5F0C5F1F4F8D2F90E09D
:10491000C83030F0DF91CF911F910F910895D0E012
:104920006C2F80E00E94E9059C01C3CF895CCBCF4E
:10493000895CD9CF895CE1CFFC0185811F928F937F
:1049400084811F928F9383811F928F9382811F9204
:104950008F9381811F928F9380811F928F9389EB18
:1049600093E09F938F935F934F937F936F930E94F6
:10497000572E2DB73EB72E5E3F4F0FB6F8943EBF71
:104980000FBE2DBF08959B016115710581F1AB012B
:104990004B5F5F4F5F934F93415051095F934F932C
:1049A000415051095F934F93415051095F934F9389
:1049B000415051095F934F933F936F9325E933E043
:1049C0003F932F939F938F930E94A62E9C0181E08B
:1049D0004DB75EB7405F5F4F0FB6F8945EBF0FBE36
:1049E0004DBF2630310509F480E0819508958FEFA1
:1049F0000895A7E0B0E0EFEFF4E20C949D348B0152
:104A00007A01FC01CF0121912032E1F3222321F12F
:104A1000BE016F5F7F4FB7DF87FD1BC046E050E0F0
:104A2000BE016F5F7F4F80E090E00E94C6030E944E
:104A3000E3038F8341E050E0BE01695F7F4F82E175
:104A400090E00E94C60380E090E02796E6E00C9498
:104A5000B9348FEF9FEFF9CF46E050E060E070E0AF
:104A6000CE0101960E94C834A701B801CE0101967B
:104A700063DFEBCFA1E0B0E0E0E4F5E20C94A13419
:104A80009B01AE014F5F5F4F5F934F93AB01495F57
:104A90005F4F5F934F93415051095F934F93415044
:104AA00051095F934F93415051095F934F93415088
:104AB00051095F934F93415051095F934F93415078
:104AC00051095F934F933F936F932CE034E03F93F2
:104AD0002F939F938F930E94A62E9C010FB6F8945C
:104AE000DEBF0FBECDBF80E02830310551F08FEF23
:104AF0002930310531F481E09981903209F480E068
:104B000081952196E2E00C94BD340F931F93CF93CF
:104B1000DF93EB01142F052F6091510160956170B7
:104B200080E20E948A0A9091510191609093510114
:104B3000813009F041C080915A011F928F9380917A
:104B400059011F928F93809158011F928F938091EA
:104B500057011F928F93809156011F928F938091DE
:104B600055011F928F93809154011F928F938091D2
:104B700053011F928F938BEE93E09F938F930F932C
:104B80001F93DF93CF930E94572E2DB73EB72A5E17
:104B90003F4F0FB6F8943EBF0FBE2DBF1816190633
:104BA00034F426EF3FEFA901481B590BCA01DF91EE
:104BB000CF911F910F9108959E7F9093510180E0B6
:104BC00090E0F5CFA1E1B0E0E8EEF5E20C949B3483
:104BD000162F072FD42EC52E9C01C9012F5F3F4FE2
:104BE000FC0140814032C9F3BE01665F7F4F42DF66
:104BF00087FD49C0CE010A960E94080B882391F1D7
:104C0000BE016F5F7F4FCE010A960E94410B81303B
:104C100031F08EEF9FEF6196E8E00C94B734BE015F
:104C20006F5F7F4FCE010A960E94740B292F220FCF
:104C3000220BE92EF22E9AE09E9DF0019F9DF00D31
:104C40001124899FC001112480589F4F892F990FEB
:104C5000990B412F502F61E08E0F9F1F0E9450042F
:104C600090E0D9CF87ED93E09F938F93CF92DF921F
:104C70000F931F930E94572E0F900F900F900F903D
:104C80000F900F90C8CF8FEF9FEFC5CFA8E0B0E097
:104C9000ECE4F6E20C949F349C01C9012F5F3F4F76
:104CA000FC0140814032C9F38E010F5F1F4FB801F4
:104CB000E1DE87FD12C0C80161E00E94150B282FBC
:104CC000082E000C330B813059F08EEF9FEF2F3FF1
:104CD0003F4F41F08FEF9FEF05C080E090E0ECCFB9
:104CE00080E090E02896E4E00C94BB34DC018C91E9
:104CF000873149F187E18C9311961C92809166016E
:104D00008F93809165018F93809164018F9380913F
:104D100063018F9381EC94E09F938F935F934F9304
:104D20007F936F93C4D726EF3FEFA901481B590B20
:104D3000CA012DB73EB7265F3F4F0FB6F8943EBF6E
:104D40000FBE2DBF08951196EC911197EF5F11964C
:104D5000EC93E93008F037C1F0E0E850FB4C0C94DC
:104D6000723480916A018F93809169018F93809151
:104D700068018F93809167018F9382EB94E09F93FA
:104D80008F935F934F937F936F9391D726EF3FEF6E
:104D9000A901481B590BCA012DB73EB7265F3F4FEB
:104DA0000FB6F8943EBF0FBE2DBF089580916E01DF
:104DB0008F9380916D018F9380916C018F9380917F
:104DC0006B018F9380EA94E09F938F935F934F934F
:104DD0007F936F936CD726EF3FEFA901481B590BC8
:104DE000CA012DB73EB7265F3F4F0FB6F8943EBFBE
:104DF0000FBE2DBF0895809182018F938091810114
:104E00008F93809180018F9380917F018F938FE8A2
:104E100094E09F938F935F934F937F936F9347D7C4
:104E200026EF3FEFA901481B590BCA012DB73EB72A
:104E3000265F3F4F0FB6F8943EBF0FBE2DBF0895BB
:104E4000809186018F93809185018F938091840159
:104E50008F93809183018F938FE794E09F938F933B
:104E60005F934F937F936F9322D726EF3FEFA90174
:104E7000481B590BCA012DB73EB7265F3F4F0FB6EF
:104E8000F8943EBF0FBE2DBF0895809176018F9399
:104E9000809175018F93809174018F93809173013C
:104EA0008F93809172018F93809171018F93809184
:104EB00070018F9380916F018F9389E694E09F93A7
:104EC0008F935F934F937F936F93F1D626EF3FEFCE
:104ED000A901481B590BCA012DB73EB7225F3F4FAE
:104EE0000FB6F8943EBF0FBE2DBF089580917E018E
:104EF0008F9380917D018F9380917C018F9380911E
:104F00007B018F9380917A018F93809179018F93A8
:104F1000809178018F93809177018F9380E594E061
:104F20009F938F935F934F937F936F93C0D626EF9A
:104F30003FEFA901481B590BCA012DB73EB7225FAD
:104F40003F4F0FB6F8943EBF0FBE2DBF089580911E
:104F50008E018F9380918D018F9380918C018F931F
:104F600080918B018F9383E494E09F938F935F9361
:104F70004F937F936F939BD626EF3FEFA901481B7A
:104F8000590BCA012DB73EB7265F3F4F0FB6F894B5
:104F90003EBF0FBE2DBF089580918F011F928F934A
:104FA00087E394E09F938F935F934F937F936F93E7
:104FB0007ED64DB75EB7485F5F4F0FB6F8945EBFC1
:104FC0000FBE4DBF089580E090E00895A5E0B0E0E9
:104FD000ECEEF7E20C94A134FC01CF0121912032D8
:104FE000E1F3222311F1BE016F5F7F4F0E9425186C
:104FF00081112CC044E050E0BE016F5F7F4F86E01E
:1050000090E00E94C6030E94E3038D8341E050E0DC
:10501000BE016B5F7F4F82E190E00E94C60380E09B
:1050200090E02596E2E00C94BD3480916206909168
:1050300063069A83898380916406909165069C83B8
:105040008B83CE0101960E94F117EBCF8FEF9FEF7C
:10505000E8CFA5E0B0E0EFE2F8E20C94A134FC0167
:10506000CF0121912032E1F3222311F1BE016F5FC4
:105070007F4F0E94251881112CC044E050E0BE01F2
:105080006F5F7F4F8AE090E00E94C6030E94E303B7
:105090008D8341E050E0BE016B5F7F4F82E190E085
:1050A0000E94C60380E090E02596E2E00C94BD34B7
:1050B00080915E0690915F069A8389838091600655
:1050C000909161069C838B83CE0101960E94F1171B
:1050D000EBCF8FEF9FEFE8CFA5E0B0E0E2E7F8E29B
:1050E0000C94A134FC01CF0121912032E1F3222361
:1050F00011F1BE016F5F7F4F0E94251881112CC0F6
:1051000044E050E0BE016F5F7F4F8EE090E00E9470
:10511000C6030E94E3038D8341E050E0BE016B5F54
:105120007F4F82E190E00E94C60380E090E02596E8
:10513000E2E00C94BD3480916606909167069A83F4
:10514000898380916806909169069C838B83CE0148
:1051500001960E94F117EBCF8FEF9FEFE8CFAAE007
:10516000B0E0E5EBF8E20C949B34F62EE72ED42E5B
:10517000C52E0E947D1DAB01BC01CE0101960E948F
:10518000C11F0E8124E0029F800111240A5B1E4F83
:105190008A85882309F43EC088E790E06CE370E0DC
:1051A0000E943D34F8013296349131972491F801F0
:1051B00004919F938F937F936F9389811F928F9315
:1051C0008A811F928F938B811F928F938F8190E0A2
:1051D0008459984F9F938F938D811F928F938C81C9
:1051E0001F928F931F923F931F922F931F920F93A3
:1051F00081ED94E09F938F93CF92DF92EF92FF9295
:1052000056D50FB6F894DEBF0FBECDBF2A96E8E0A4
:105210000C94B7348CE390E0C1CFA5E0B0E0E3E1BB
:10522000F9E20C949F3469837D83142F052FFC01D0
:10523000CF0121912032E1F321111AC00E947D1D7E
:105240009F938F937F936F938FEF94E09F938F93B0
:105250000F931F932D812F9339813F9328D50FB63C
:10526000F894DEBF0FBECDBF2596E4E00C94BB34AE
:105270004AE050E060E070E0F4D269837A838B8387
:105280009C8389819A81AB81BC810097A105B1057E
:1052900039F0BC01CD010E94221D80E090E0E4CFF6
:1052A0008FEF9FEFE1CFFC018081813359F0918135
:1052B0009E3641F0803341F081E0963609F480E07B
:1052C0008195089581E0089580E008951F93CF931C
:1052D000DF93162FD72FE7DF87FD18C0882379F0DB
:1052E000109AC2E042E050E064EA76E0812F9D2F00
:1052F00013D48C2F90E0DF91CF911F9108951098D7
:10530000C3E043E050E060EA76E0F0CF8FEF9FEF3C
:10531000F2CFCF93CB01C2E042E050E064EA76E006
:10532000009905C0C3E043E050E060EA76E0F4D3C2
:105330008C2F90E0CF910895CF93CB0122B1009AAA
:10534000C2E042E050E064EA76E020FF05C0C3E03E
:1053500043E050E060EA76E0DFD38C2F90E0CF911D
:1053600008951F93CF93DF93162FD72F9CDF87FDD0
:1053700018C0882379F0119AC2E042E050E064EA54
:1053800076E0812F9D2FC8D38C2F90E0DF91CF91B5
:105390001F9108951198C3E043E050E060EA76E081
:1053A000F0CF8FEF9FEFF2CFCF93CB01C2E042E07F
:1053B00050E064EA76E0019905C0C3E043E050E0C4
:1053C00060EA76E0A9D38C2F90E0CF910895CF9337
:1053D000CB0122B1019AC2E042E050E064EA76E0FB
:1053E00021FF05C0C3E043E050E060EA76E094D3DB
:1053F0008C2F90E0CF9108951F93CF93DF93162FBA
:10540000D72F51DF87FD18C0882379F0129AC2E0A8
:1054100042E050E064EA76E0812F9D2F7DD38C2F0F
:1054200090E0DF91CF911F9108951298C3E043E07F
:1054300050E060EA76E0F0CF8FEF9FEFF2CFCF93AE
:10544000CB01C2E042E050E064EA76E0029905C098
:10545000C3E043E050E060EA76E05ED38C2F90E05A
:10546000CF910895CF93CB0122B1029AC2E042E0DE
:1054700050E064EA76E022FF05C0C3E043E050E07C
:1054800060EA76E049D38C2F90E0CF9108951F9386
:10549000CF93DF93162FD72F06DF87FD18C0882301
:1054A00079F0139AC2E042E050E064EA76E0812F9E
:1054B0009D2F32D38C2F90E0DF91CF911F910895D3
:1054C0001398C3E043E050E060EA76E0F0CF8FEF5E
:1054D0009FEFF2CFCF93CB01C2E042E050E064EA0D
:1054E00076E0039905C0C3E043E050E060EA76E06F
:1054F00013D38C2F90E0CF910895CF93CB0122B19D
:10550000039AC2E042E050E064EA76E023FF05C07F
:10551000C3E043E050E060EA76E0FED28C2F90E0FA
:10552000CF9108950E94DC040E94FB040E94E005D4
:105530000E9486090C94E91C08950E94D6070E94D7
:10554000A10B0E94670D0E94B61B0C94C120089508
:1055500008958091DA06882309F451C01092DA0682
:105560008091D8069091D90601969093D9068093A0
:10557000D8068FB7F89490915D06992311F08FBFEC
:10558000089598E090935D068FBF0E94EE1C809175
:10559000D8069091D90665E070E00E942934892BE5
:1055A00021F40E94C10B0E94D50D8091D8069091E4
:1055B000D9066AE070E00E942934892B11F40E9418
:1055C000D5178091D8069091D90662E370E00E94C9
:1055D0002934892B11F40E945A088091D8069091A1
:1055E000D90664EF71E00E942934892B31F41092BE
:1055F000D9061092D8060E94F21810925D060895FE
:105600000E940209A8950E947E0FA895A2DFA89586
:1056100008950F931F93CF93DF939C01029710F48B
:1056200022E030E0E0914201F091430190E080E01F
:10563000B0E0A0E0309791F4009709F445C0821BD8
:10564000930B84309105B8F58A819B8161157105B2
:1056500069F1FB0193838283FE0111C04081518176
:105660000281138142175307F0F04217530799F450
:10567000109761F012960C93129713961C93329622
:10568000CF01DF91CF911F910F91089500934201B7
:1056900010934301F4CF009719F04817590718F4F5
:1056A000CA01BD01EF01DF01F801C4CF90934301AE
:1056B00080934201D1CFFE01E80FF91F219331936E
:1056C000029799838883DCCF8091440190914501B2
:1056D000892B41F48091020190910301909345013F
:1056E000809344018091000190910101009741F461
:1056F0008DB79EB74091040150910501841B950B15
:1057000040914401509145014817590708F0B8CF1E
:10571000841B950B8217930708F4B2CFB9016E5F13
:105720007F4F8617970708F4ABCF640F751F7093F0
:10573000450160934401FA0121933193A1CFCF93A6
:10574000DF939C010097E9F0FC01329713821282EB
:10575000C0914201D0914301DE0190E080E02097AA
:10576000A1F480819181280F391F8091440190918B
:1057700045018217930709F067C0F0934501E09354
:105780004401DF91CF910895DA01AE17BF0708F009
:1057900041C012964D915C911397CD014115510571
:1057A00099F7DC011396FC93EE9312974D915D915E
:1057B000A40FB51FEA17FB0781F4208131812E5F0A
:1057C0003F4F240F351FDC0111963C932E9322810D
:1057D000338113963C932E931297B0E0A0E08A8118
:1057E0009B810097B1F5FE0181919191E80FF91F1E
:1057F00080914401909145018E179F0711F61097F3
:1058000059F51092430110924201D0934501C09383
:105810004401B7CFB383A28340815181240F351F48
:10582000A217B30771F44E5F5F4F2D913C91119712
:10583000240F351F3183208312962D913C913383A1
:105840002283009709F0ADCFF0934301E09342012A
:1058500098CFDE01EC01C3CF13961C921E921297D3
:10586000D4CFA6E0B0E0E7E3FCE20C9493348D8360
:105870009E836B017A016115710529F0ED81FE812E
:10588000DB01ED93FC93E114F10429F0C7010297C9
:10589000839708F0A4C0AD80BE8095012F5F3F4F75
:1058A0003E832D83D5011C91812F90E020D1892B3F
:1058B00091F71D32B1F4ED81FE81108195012E5FCB
:1058C0003F4F3E832D8301E0E114F10409F4FEC053
:1058D000F0E1EF16F10409F001C1103369F0E02F97
:1058E0001DC01B3239F4AD81BE811C91F501329689
:1058F000FE83ED8300E0E8CFAD81BE818C918F7D8A
:10590000883509F071C011961C9111971296BE83CB
:10591000AD83E02FE26050E1E52EF12C88248A94DB
:10592000982CA82C8FE0B82E7FC0E02F10E329E937
:10593000822E982CA82C29E1B22E76C0E02F10E3FD
:10594000EDCFE02F88248A94982CA82C3FE1B32E29
:105950006BC0E02F10E348E0E42EF12CF3CF8FEF83
:10596000AFC0C114D10449F0882371F12D813E816B
:1059700021503109F60131832083002379F02981F8
:105980003A814B815C8150954095309521953F4FF0
:105990004F4F5F4F29833A834B835C838F3F69F47A
:1059A00082E290E090934701809346018FEF9FEF52
:1059B000DC0189839A83AB83BC8369817A818B8183
:1059C0009C812696E0E1CBC7E1FF06C0ED81FE8118
:1059D0003297D601ED93FC93002379F3D0CF19824F
:1059E0001A821B821C82E9CFE114F10409F4B1CFC1
:1059F000BAE0EB16F10409F498CFE0E1EE16F104F9
:105A000009F49CCF10E3F8E0EF16F10409F499CF04
:105A10006FEF7FEFCB0197010F2C000C440B550B60
:105A20003FD749015A01E02F80E019821A821B8278
:105A30001C8227010F2C000C66087708F0EDF10F8F
:105A4000FA3060F09FEB910FF9EC9A3130F09FE95A
:105A5000910F9A3108F085CFF9EAF10FFE151F0476
:105A60000CF07FCF8F3F61F129813A814B815C81BE
:105A700082169306A406B50608F471CFA30192011D
:105A800069817A818B819C81C9D669837A838B8372
:105A90009C838F2F90E0B0E0A0E029813A814B8178
:105AA0005C81280F391F4A1F5B1F29833A834B8370
:105AB0005C83281739074A075B0708F450CF81E059
:105AC000AD81BE811D91BE83AD83B8CF103309F483
:105AD00013CFE02F9AE0E92EF12C29CF9AE0E916B6
